{"project/contracts/TimeCapsule.sol":{"TimeCapsule":{"abi":[{"inputs":[{"internalType":"address","name":"_treasury","type":"address"}],"stateMutability":"nonpayable","type":"constructor"},{"inputs":[],"name":"CapsuleAlreadyRevealed","type":"error"},{"inputs":[],"name":"CapsuleNotFound","type":"error"},{"inputs":[],"name":"CapsuleStillLocked","type":"error"},{"inputs":[],"name":"ContentTooLarge","type":"error"},{"inputs":[],"name":"HashMismatch","type":"error"},{"inputs":[],"name":"InsufficientFee","type":"error"},{"inputs":[],"name":"InvalidUnlockTime","type":"error"},{"inputs":[],"name":"NotOwner","type":"error"},{"inputs":[],"name":"UnauthorizedAccess","type":"error"},{"anonymous":false,"inputs":[{"indexed":true,"internalType":"uint256","name":"capsuleId","type":"uint256"},{"indexed":true,"internalType":"address","name":"owner","type":"address"},{"indexed":false,"internalType":"uint64","name":"unlockTime","type":"uint64"},{"indexed":false,"internalType":"enum TimeCapsule.CapsuleType","name":"capsuleType","type":"uint8"},{"indexed":false,"internalType":"bytes32","name":"contentHash","type":"bytes32"}],"name":"CapsuleCreated","type":"event"},{"anonymous":false,"inputs":[{"indexed":true,"internalType":"uint256","name":"capsuleId","type":"uint256"},{"indexed":true,"internalType":"address","name":"revealer","type":"address"},{"indexed":false,"internalType":"string","name":"finalContentRef","type":"string"}],"name":"CapsuleRevealed","type":"event"},{"anonymous":false,"inputs":[{"indexed":true,"internalType":"uint256","name":"capsuleId","type":"uint256"},{"indexed":true,"internalType":"address","name":"unlocker","type":"address"}],"name":"CapsuleUnlocked","type":"event"},{"inputs":[],"name":"MAX_CONTENT_SIZE","outputs":[{"internalType":"uint256","name":"","type":"uint256"}],"stateMutability":"view","type":"function"},{"inputs":[],"name":"MAX_LOCK_DURATION","outputs":[{"internalType":"uint64","name":"","type":"uint64"}],"stateMutability":"view","type":"function"},{"inputs":[],"name":"MIN_LOCK_DURATION","outputs":[{"internalType":"uint64","name":"","type":"uint64"}],"stateMutability":"view","type":"function"},{"inputs":[{"internalType":"uint256","name":"capsuleId","type":"uint256"},{"internalType":"address","name":"user","type":"address"}],"name":"canAccessCapsule","outputs":[{"internalType":"bool","name":"","type":"bool"}],"stateMutability":"view","type":"function"},{"inputs":[{"internalType":"enum TimeCapsule.CapsuleType","name":"capsuleType","type":"uint8"},{"internalType":"bytes32","name":"contentHash","type":"bytes32"},{"internalType":"string","name":"contentRef","type":"string"},{"internalType":"uint64","name":"unlockTime","type":"uint64"},{"internalType":"string[]","name":"recipients","type":"string[]"},{"internalType":"bool","name":"isPublic","type":"bool"}],"name":"createCapsule","outputs":[{"internalType":"uint256","name":"capsuleId","type":"uint256"}],"stateMutability":"payable","type":"function"},{"inputs":[{"internalType":"uint256","name":"capsuleId","type":"uint256"}],"name":"getCapsule","outputs":[{"components":[{"internalType":"address","name":"owner","type":"address"},{"internalType":"uint64","name":"createdAt","type":"uint64"},{"internalType":"uint64","name":"unlockTime","type":"uint64"},{"internalType":"enum TimeCapsule.CapsuleType","name":"capsuleType","type":"uint8"},{"internalType":"enum TimeCapsule.CapsuleStatus","name":"status","type":"uint8"},{"internalType":"bytes32","name":"contentHash","type":"bytes32"},{"internalType":"string","name":"contentRef","type":"string"},{"internalType":"string[]","name":"recipients","type":"string[]"},{"internalType":"bool","name":"isPublic","type":"bool"}],"internalType":"struct TimeCapsule.CapsuleMeta","name":"","type":"tuple"}],"stateMutability":"view","type":"function"},{"inputs":[{"internalType":"address","name":"user","type":"address"}],"name":"getUserCapsules","outputs":[{"internalType":"uint256[]","name":"","type":"uint256[]"}],"stateMutability":"view","type":"function"},{"inputs":[],"name":"protocolFee","outputs":[{"internalType":"uint256","name":"","type":"uint256"}],"stateMutability":"view","type":"function"},{"inputs":[{"internalType":"uint256","name":"capsuleId","type":"uint256"},{"internalType":"bytes","name":"plaintextOrKey","type":"bytes"},{"internalType":"string","name":"finalContentRef","type":"string"}],"name":"revealCapsule","outputs":[],"stateMutability":"nonpayable","type":"function"},{"inputs":[{"internalType":"uint256","name":"newFee","type":"uint256"}],"name":"setProtocolFee","outputs":[],"stateMutability":"nonpayable","type":"function"},{"inputs":[{"internalType":"address","name":"newTreasury","type":"address"}],"name":"setTreasury","outputs":[],"stateMutability":"nonpayable","type":"function"},{"inputs":[],"name":"totalCapsules","outputs":[{"internalType":"uint256","name":"","type":"uint256"}],"stateMutability":"view","type":"function"},{"inputs":[],"name":"treasury","outputs":[{"internalType":"address","name":"","type":"address"}],"stateMutability":"view","type":"function"},{"inputs":[{"internalType":"uint256","name":"capsuleId","type":"uint256"}],"name":"unlockCapsule","outputs":[],"stateMutability":"nonpayable","type":"function"}],"evm":{"bytecode":{"linkReferences":{},"object":"608060405266038d7ea4c680006003553480156019575f5ffd5b50604051611a7e380380611a7e833981016040819052603691605a565b600480546001600160a01b0319166001600160a01b03929092169190911790556085565b5f602082840312156069575f5ffd5b81516001600160a01b0381168114607e575f5ffd5b9392505050565b6119ec806100925f395ff3fe6080604052600436106100d9575f3560e01c806378b4330f1161007c578063b29580c611610057578063b29580c61461026b578063b49ce17f1461027e578063c247761014610291578063f0f44260146102a6575f5ffd5b806378b4330f146102035780637f944a8914610219578063b0e21e8a14610248575f5ffd5b80634f1bfc9e116100b75780634f1bfc9e1461015f5780635eebcf0a1461018e57806361d027b3146101ad578063787dce3d146101e4575f5ffd5b80632178c0a2146100dd578063366636f7146100fe5780633aac385814610133575b5f5ffd5b3480156100e8575f5ffd5b506100fc6100f736600461116c565b6102c5565b005b348015610109575f5ffd5b5061011d61011836600461119e565b6103d0565b60405161012a91906111be565b60405180910390f35b34801561013e575f5ffd5b5061015261014d36600461116c565b610439565b60405161012a91906112c5565b34801561016a575f5ffd5b506101766312cc030081565b6040516001600160401b03909116815260200161012a565b348015610199575f5ffd5b506100fc6101a83660046113dd565b6106fa565b3480156101b8575f5ffd5b506004546101cc906001600160a01b031681565b6040516001600160a01b03909116815260200161012a565b3480156101ef575f5ffd5b506100fc6101fe36600461116c565b610897565b34801561020e575f5ffd5b506101766201518081565b348015610224575f5ffd5b50610238610233366004611454565b6108fb565b604051901515815260200161012a565b348015610253575f5ffd5b5061025d60035481565b60405190815260200161012a565b61025d6102793660046114cd565b61093a565b348015610289575f5ffd5b505f5461025d565b34801561029c575f5ffd5b5061025d61800081565b3480156102b1575f5ffd5b506100fc6102c036600461119e565b610cb7565b808015806102d357505f5481115b156102f157604051633926fe6960e21b815260040160405180910390fd5b5f828152600160208190526040909120015482906001600160401b031642101561032e5760405163654c00ad60e11b815260040160405180910390fd5b5f8381526001602052604090206103458433610d33565b61036257604051631a27eac360e11b815260040160405180910390fd5b5f6001820154600160481b900460ff16600281111561038357610383611200565b036103ca5760018101805460ff60481b1916600160481b179055604051339085907f0471bd7f29713f61eb505f5a380fdb81d65e4b4023b30ea5d79bd5ce94cd12ee905f90a35b50505050565b6001600160a01b0381165f9081526002602090815260409182902080548351818402810184019094528084526060939283018282801561042d57602002820191905f5260205f20905b815481526020019060010190808311610419575b50505050509050919050565b61048660408051610120810182525f8082526020820181905291810182905290606082019081526020015f81526020015f815260200160608152602001606081526020015f151581525090565b8180158061049457505f5481115b156104b257604051633926fe6960e21b815260040160405180910390fd5b5f8381526001602081815260409283902083516101208101855281546001600160a01b0381168252600160a01b90046001600160401b039081169382019390935292810154918216938301939093529091906060830190600160401b900460ff16600281111561052457610524611200565b600281111561053557610535611200565b81526020016001820160099054906101000a900460ff16600281111561055d5761055d611200565b600281111561056e5761056e611200565b81526020016002820154815260200160038201805461058c90611586565b80601f01602080910402602001604051908101604052809291908181526020018280546105b890611586565b80156106035780601f106105da57610100808354040283529160200191610603565b820191905f5260205f20905b8154815290600101906020018083116105e657829003601f168201915b5050505050815260200160048201805480602002602001604051908101604052809291908181526020015f905b828210156106d8578382905f5260205f2001805461064d90611586565b80601f016020809104026020016040519081016040528092919081815260200182805461067990611586565b80156106c45780601f1061069b576101008083540402835291602001916106c4565b820191905f5260205f20905b8154815290600101906020018083116106a757829003601f168201915b505050505081526020019060010190610630565b505050908252506005919091015460ff16151560209091015291505b50919050565b8480158061070857505f5481115b1561072657604051633926fe6960e21b815260040160405180910390fd5b5f868152600160208190526040909120015486906001600160401b03164210156107635760405163654c00ad60e11b815260040160405180910390fd5b5f87815260016020526040902061077a8833610d33565b61079757604051631a27eac360e11b815260040160405180910390fd5b60026001820154600160481b900460ff1660028111156107b9576107b9611200565b036107d75760405163284df11b60e11b815260040160405180910390fd5b5f87876040516107e89291906115b8565b604051809103902090508160020154811461081657604051633f4d605360e01b815260040160405180910390fd5b60018201805460ff60481b1916690200000000000000000017905584156108485760038201610846868883611627565b505b336001600160a01b0316897f8d1112661232467ed4950800400bb39b8d16d296cdf515ad9bb7b416e8ca64a588886040516108849291906116e0565b60405180910390a3505050505050505050565b6004546001600160a01b031633146108f65760405162461bcd60e51b815260206004820152601c60248201527f4f6e6c792074726561737572792063616e20757064617465206665650000000060448201526064015b60405180910390fd5b600355565b5f8280158061090a57505f5481115b1561092857604051633926fe6960e21b815260040160405180910390fd5b6109328484610d33565b949350505050565b5f426109496201518082611722565b6001600160401b0316866001600160401b031611158061098757506109726312cc030082611722565b6001600160401b0316866001600160401b0316115b156109a5576040516352aba6d360e11b815260040160405180910390fd5b6003543410156109c75760405162976f7560e21b815260040160405180910390fd5b5f5f81546109d490611741565b9190508190559150604051806101200160405280336001600160a01b03168152602001826001600160401b03168152602001876001600160401b031681526020018b6002811115610a2757610a27611200565b81526020015f81526020018a815260200189898080601f0160208091040260200160405190810160405280939291908181526020018383808284375f92019190915250505090825250602001610a7d8688611789565b81528415156020918201525f848152600180835260409182902084518154948601516001600160401b03908116600160a01b026001600160e01b03199096166001600160a01b03909216919091179490941781559184015190820180549190931667ffffffffffffffff19821681178455606085015192939168ffffffffffffffffff191617600160401b836002811115610b1a57610b1a611200565b0217905550608082015160018201805460ff60481b1916600160481b836002811115610b4857610b48611200565b021790555060a0820151600282015560c08201516003820190610b6b908261186b565b5060e08201518051610b879160048401916020909101906110ae565b5061010091909101516005909101805460ff1916911515919091179055335f9081526002602090815260408220805460018101825590835291200182905560035415801590610be057506004546001600160a01b031615155b15610c20576004546003546040516001600160a01b039092169181156108fc0291905f818181858888f19350505050158015610c1e573d5f5f3e3d5ffd5b505b600354341115610c645760035433906108fc90610c3d9034611925565b6040518115909202915f818181858888f19350505050158015610c62573d5f5f3e3d5ffd5b505b336001600160a01b0316827fb3c4c7b28baf8af82896d6f8a91d921ede5583f788a20de9fdb41c1cf5816ebf888d8d604051610ca293929190611938565b60405180910390a35098975050505050505050565b6004546001600160a01b03163314610d115760405162461bcd60e51b815260206004820181905260248201527f4f6e6c792074726561737572792063616e20757064617465206164647265737360448201526064016108ed565b600480546001600160a01b0319166001600160a01b0392909216919091179055565b5f82815260016020526040812080546001600160a01b03808516911603610d5e576001915050610e76565b5f610d6884610e7c565b90505f5b6004830154811015610e3e57610e25836004018281548110610d9057610d90611962565b905f5260205f20018054610da390611586565b80601f0160208091040260200160405190810160405280929190818152602001828054610dcf90611586565b8015610e1a5780601f10610df157610100808354040283529160200191610e1a565b820191905f5260205f20905b815481529060010190602001808311610dfd57829003601f168201915b505050505083611056565b15610e365760019350505050610e76565b600101610d6c565b50600582015460ff168015610e60575060018201546001600160401b03164210155b15610e7057600192505050610e76565b5f925050505b92915050565b604080518082018252601081526f181899199a1a9b1b9c1cb0b131b232b360811b60208201528151602a80825260608281019094526001600160a01b03851692915f91602082018180368337019050509050600360fc1b815f81518110610ee557610ee5611962565b60200101906001600160f81b03191690815f1a905350600f60fb1b81600181518110610f1357610f13611962565b60200101906001600160f81b03191690815f1a9053505f5b601481101561104d5782600485610f4384600c611976565b60208110610f5357610f53611962565b1a60f81b6001600160f81b031916901c60f81c60ff1681518110610f7957610f79611962565b01602001516001600160f81b03191682610f94836002611989565b610f9f906002611976565b81518110610faf57610faf611962565b60200101906001600160f81b03191690815f1a9053508284610fd283600c611976565b60208110610fe257610fe2611962565b825191901a600f16908110610ff957610ff9611962565b01602001516001600160f81b03191682611014836002611989565b61101f906003611976565b8151811061102f5761102f611962565b60200101906001600160f81b03191690815f1a905350600101610f2b565b50949350505050565b5f8160405160200161106891906119a0565b604051602081830303815290604052805190602001208360405160200161108f91906119a0565b6040516020818303038152906040528051906020012014905092915050565b828054828255905f5260205f209081019282156110f2579160200282015b828111156110f257825182906110e2908261186b565b50916020019190600101906110cc565b506110fe929150611102565b5090565b808211156110fe575f611115828261111e565b50600101611102565b50805461112a90611586565b5f825580601f10611139575050565b601f0160209004905f5260205f20908101906111559190611158565b50565b5b808211156110fe575f8155600101611159565b5f6020828403121561117c575f5ffd5b5035919050565b80356001600160a01b0381168114611199575f5ffd5b919050565b5f602082840312156111ae575f5ffd5b6111b782611183565b9392505050565b602080825282518282018190525f918401906040840190835b818110156111f55783518352602093840193909201916001016111d7565b509095945050505050565b634e487b7160e01b5f52602160045260245ffd5b6003811061115557634e487b7160e01b5f52602160045260245ffd5b61123981611214565b9052565b5f81518084528060208401602086015e5f602082860101526020601f19601f83011685010191505092915050565b5f82825180855260208501945060208160051b830101602085015f5b838110156112b957601f198584030188526112a383835161123d565b6020988901989093509190910190600101611287565b50909695505050505050565b602081526112df6020820183516001600160a01b03169052565b5f60208301516112fa60408401826001600160401b03169052565b5060408301516001600160401b03811660608401525060608301516113226080840182611230565b50608083015161133560a0840182611230565b5060a083015160c083015260c083015161012060e084015261135b61014084018261123d565b905060e0840151601f1984830301610100850152611379828261126b565b91505061010084015161139161012085018215159052565b509392505050565b5f5f83601f8401126113a9575f5ffd5b5081356001600160401b038111156113bf575f5ffd5b6020830191508360208285010111156113d6575f5ffd5b9250929050565b5f5f5f5f5f606086880312156113f1575f5ffd5b8535945060208601356001600160401b0381111561140d575f5ffd5b61141988828901611399565b90955093505060408601356001600160401b03811115611437575f5ffd5b61144388828901611399565b969995985093965092949392505050565b5f5f60408385031215611465575f5ffd5b8235915061147560208401611183565b90509250929050565b5f5f83601f84011261148e575f5ffd5b5081356001600160401b038111156114a4575f5ffd5b6020830191508360208260051b85010111156113d6575f5ffd5b80358015158114611199575f5ffd5b5f5f5f5f5f5f5f5f60c0898b0312156114e4575f5ffd5b8835600381106114f2575f5ffd5b97506020890135965060408901356001600160401b03811115611513575f5ffd5b61151f8b828c01611399565b90975095505060608901356001600160401b038116811461153e575f5ffd5b935060808901356001600160401b03811115611558575f5ffd5b6115648b828c0161147e565b9094509250611577905060a08a016114be565b90509295985092959890939650565b600181811c9082168061159a57607f821691505b6020821081036106f457634e487b7160e01b5f52602260045260245ffd5b818382375f9101908152919050565b634e487b7160e01b5f52604160045260245ffd5b601f82111561162257805f5260205f20601f840160051c810160208510156116005750805b601f840160051c820191505b8181101561161f575f815560010161160c565b50505b505050565b6001600160401b0383111561163e5761163e6115c7565b6116528361164c8354611586565b836115db565b5f601f841160018114611683575f851561166c5750838201355b5f19600387901b1c1916600186901b17835561161f565b5f83815260208120601f198716915b828110156116b25786850135825560209485019460019092019101611692565b50868210156116ce575f1960f88860031b161c19848701351681555b505060018560011b0183555050505050565b60208152816020820152818360408301375f818301604090810191909152601f909201601f19160101919050565b634e487b7160e01b5f52601160045260245ffd5b6001600160401b038181168382160190811115610e7657610e7661170e565b5f600182016117525761175261170e565b5060010190565b604051601f8201601f191681016001600160401b0381118282101715611781576117816115c7565b604052919050565b5f6001600160401b038311156117a1576117a16115c7565b8260051b6117b160208201611759565b848152908301906020810190368311156117c9575f5ffd5b845b838110156118615780356001600160401b038111156117e8575f5ffd5b860136601f8201126117f8575f5ffd5b80356001600160401b03811115611811576118116115c7565b611824601f8201601f1916602001611759565b818152366020838501011115611838575f5ffd5b816020840160208301375f602083830101528086525050506020830192506020810190506117cb565b5095945050505050565b81516001600160401b03811115611884576118846115c7565b611898816118928454611586565b846115db565b6020601f8211600181146118ca575f83156118b35750848201515b5f19600385901b1c1916600184901b17845561161f565b5f84815260208120601f198516915b828110156118f957878501518255602094850194600190920191016118d9565b508482101561191657868401515f19600387901b60f8161c191681555b50505050600190811b01905550565b81810381811115610e7657610e7661170e565b6001600160401b03841681526060810161195184611214565b602082019390935260400152919050565b634e487b7160e01b5f52603260045260245ffd5b80820180821115610e7657610e7661170e565b8082028115828204841417610e7657610e7661170e565b5f82518060208501845e5f92019182525091905056fea2646970667358221220fca64ef95ab6e4683938d8bd9a9e445a6be9b6d85f9f1310bba6ae090eeb75d864736f6c634300081e0033","opcodes":"PUSH1 0x80 PUSH1 0x40 MSTORE PUSH7 0x38D7EA4C68000 PUSH1 0x3 SSTORE CALLVALUE DUP1 ISZERO PUSH1 0x19 JUMPI PUSH0 PUSH0 REVERT JUMPDEST POP PUSH1 0x40 MLOAD PUSH2 0x1A7E CODESIZE SUB DUP1 PUSH2 0x1A7E DUP4 CODECOPY DUP2 ADD PUSH1 0x40 DUP2 SWAP1 MSTORE PUSH1 0x36 SWAP2 PUSH1 0x5A JUMP JUMPDEST PUSH1 0x4 DUP1 SLOAD PUSH1 0x1 PUSH1 0x1 PUSH1 0xA0 SHL SUB NOT AND PUSH1 0x1 PUSH1 0x1 PUSH1 0xA0 SHL SUB SWAP3 SWAP1 SWAP3 AND SWAP2 SWAP1 SWAP2 OR SWAP1 SSTORE PUSH1 0x85 JUMP JUMPDEST PUSH0 PUSH1 0x20 DUP3 DUP5 SUB SLT ISZERO PUSH1 0x69 JUMPI PUSH0 PUSH0 REVERT JUMPDEST DUP2 MLOAD PUSH1 0x1 PUSH1 0x1 PUSH1 0xA0 SHL SUB DUP2 AND DUP2 EQ PUSH1 0x7E JUMPI PUSH0 PUSH0 REVERT JUMPDEST SWAP4 SWAP3 POP POP POP JUMP JUMPDEST PUSH2 0x19EC DUP1 PUSH2 0x92 PUSH0 CODECOPY PUSH0 RETURN INVALID PUSH1 0x80 PUSH1 0x40 MSTORE PUSH1 0x4 CALLDATASIZE LT PUSH2 0xD9 JUMPI PUSH0 CALLDATALOAD PUSH1 0xE0 SHR DUP1 PUSH4 0x78B4330F GT PUSH2 0x7C JUMPI DUP1 PUSH4 0xB29580C6 GT PUSH2 0x57 JUMPI DUP1 PUSH4 0xB29580C6 EQ PUSH2 0x26B JUMPI DUP1 PUSH4 0xB49CE17F EQ PUSH2 0x27E JUMPI DUP1 PUSH4 0xC2477610 EQ PUSH2 0x291 JUMPI DUP1 PUSH4 0xF0F44260 EQ PUSH2 0x2A6 JUMPI PUSH0 PUSH0 REVERT JUMPDEST DUP1 PUSH4 0x78B4330F EQ PUSH2 0x203 JUMPI DUP1 PUSH4 0x7F944A89 EQ PUSH2 0x219 JUMPI DUP1 PUSH4 0xB0E21E8A EQ PUSH2 0x248 JUMPI PUSH0 PUSH0 REVERT JUMPDEST DUP1 PUSH4 0x4F1BFC9E GT PUSH2 0xB7 JUMPI DUP1 PUSH4 0x4F1BFC9E EQ PUSH2 0x15F JUMPI DUP1 PUSH4 0x5EEBCF0A EQ PUSH2 0x18E JUMPI DUP1 PUSH4 0x61D027B3 EQ PUSH2 0x1AD JUMPI DUP1 PUSH4 0x787DCE3D EQ PUSH2 0x1E4 JUMPI PUSH0 PUSH0 REVERT JUMPDEST DUP1 PUSH4 0x2178C0A2 EQ PUSH2 0xDD JUMPI DUP1 PUSH4 0x366636F7 EQ PUSH2 0xFE JUMPI DUP1 PUSH4 0x3AAC3858 EQ PUSH2 0x133 JUMPI JUMPDEST PUSH0 PUSH0 REVERT JUMPDEST CALLVALUE DUP1 ISZERO PUSH2 0xE8 JUMPI PUSH0 PUSH0 REVERT JUMPDEST POP PUSH2 0xFC PUSH2 0xF7 CALLDATASIZE PUSH1 0x4 PUSH2 0x116C JUMP JUMPDEST PUSH2 0x2C5 JUMP JUMPDEST STOP JUMPDEST CALLVALUE DUP1 ISZERO PUSH2 0x109 JUMPI PUSH0 PUSH0 REVERT JUMPDEST POP PUSH2 0x11D PUSH2 0x118 CALLDATASIZE PUSH1 0x4 PUSH2 0x119E JUMP JUMPDEST PUSH2 0x3D0 JUMP JUMPDEST PUSH1 0x40 MLOAD PUSH2 0x12A SWAP2 SWAP1 PUSH2 0x11BE JUMP JUMPDEST PUSH1 0x40 MLOAD DUP1 SWAP2 SUB SWAP1 RETURN JUMPDEST CALLVALUE DUP1 ISZERO PUSH2 0x13E JUMPI PUSH0 PUSH0 REVERT JUMPDEST POP PUSH2 0x152 PUSH2 0x14D CALLDATASIZE PUSH1 0x4 PUSH2 0x116C JUMP JUMPDEST PUSH2 0x439 JUMP JUMPDEST PUSH1 0x40 MLOAD PUSH2 0x12A SWAP2 SWAP1 PUSH2 0x12C5 JUMP JUMPDEST CALLVALUE DUP1 ISZERO PUSH2 0x16A JUMPI PUSH0 PUSH0 REVERT JUMPDEST POP PUSH2 0x176 PUSH4 0x12CC0300 DUP2 JUMP JUMPDEST PUSH1 0x40 MLOAD PUSH1 0x1 PUSH1 0x1 PUSH1 0x40 SHL SUB SWAP1 SWAP2 AND DUP2 MSTORE PUSH1 0x20 ADD PUSH2 0x12A JUMP JUMPDEST CALLVALUE DUP1 ISZERO PUSH2 0x199 JUMPI PUSH0 PUSH0 REVERT JUMPDEST POP PUSH2 0xFC PUSH2 0x1A8 CALLDATASIZE PUSH1 0x4 PUSH2 0x13DD JUMP JUMPDEST PUSH2 0x6FA JUMP JUMPDEST CALLVALUE DUP1 ISZERO PUSH2 0x1B8 JUMPI PUSH0 PUSH0 REVERT JUMPDEST POP PUSH1 0x4 SLOAD PUSH2 0x1CC SWAP1 PUSH1 0x1 PUSH1 0x1 PUSH1 0xA0 SHL SUB AND DUP2 JUMP JUMPDEST PUSH1 0x40 MLOAD PUSH1 0x1 PUSH1 0x1 PUSH1 0xA0 SHL SUB SWAP1 SWAP2 AND DUP2 MSTORE PUSH1 0x20 ADD PUSH2 0x12A JUMP JUMPDEST CALLVALUE DUP1 ISZERO PUSH2 0x1EF JUMPI PUSH0 PUSH0 REVERT JUMPDEST POP PUSH2 0xFC PUSH2 0x1FE CALLDATASIZE PUSH1 0x4 PUSH2 0x116C JUMP JUMPDEST PUSH2 0x897 JUMP JUMPDEST CALLVALUE DUP1 ISZERO PUSH2 0x20E JUMPI PUSH0 PUSH0 REVERT JUMPDEST POP PUSH2 0x176 PUSH3 0x15180 DUP2 JUMP JUMPDEST CALLVALUE DUP1 ISZERO PUSH2 0x224 JUMPI PUSH0 PUSH0 REVERT JUMPDEST POP PUSH2 0x238 PUSH2 0x233 CALLDATASIZE PUSH1 0x4 PUSH2 0x1454 JUMP JUMPDEST PUSH2 0x8FB JUMP JUMPDEST PUSH1 0x40 MLOAD SWAP1 ISZERO ISZERO DUP2 MSTORE PUSH1 0x20 ADD PUSH2 0x12A JUMP JUMPDEST CALLVALUE DUP1 ISZERO PUSH2 0x253 JUMPI PUSH0 PUSH0 REVERT JUMPDEST POP PUSH2 0x25D PUSH1 0x3 SLOAD DUP2 JUMP JUMPDEST PUSH1 0x40 MLOAD SWAP1 DUP2 MSTORE PUSH1 0x20 ADD PUSH2 0x12A JUMP JUMPDEST PUSH2 0x25D PUSH2 0x279 CALLDATASIZE PUSH1 0x4 PUSH2 0x14CD JUMP JUMPDEST PUSH2 0x93A JUMP JUMPDEST CALLVALUE DUP1 ISZERO PUSH2 0x289 JUMPI PUSH0 PUSH0 REVERT JUMPDEST POP PUSH0 SLOAD PUSH2 0x25D JUMP JUMPDEST CALLVALUE DUP1 ISZERO PUSH2 0x29C JUMPI PUSH0 PUSH0 REVERT JUMPDEST POP PUSH2 0x25D PUSH2 0x8000 DUP2 JUMP JUMPDEST CALLVALUE DUP1 ISZERO PUSH2 0x2B1 JUMPI PUSH0 PUSH0 REVERT JUMPDEST POP PUSH2 0xFC PUSH2 0x2C0 CALLDATASIZE PUSH1 0x4 PUSH2 0x119E JUMP JUMPDEST PUSH2 0xCB7 JUMP JUMPDEST DUP1 DUP1 ISZERO DUP1 PUSH2 0x2D3 JUMPI POP PUSH0 SLOAD DUP2 GT JUMPDEST ISZERO PUSH2 0x2F1 JUMPI PUSH1 0x40 MLOAD PUSH4 0x3926FE69 PUSH1 0xE2 SHL DUP2 MSTORE PUSH1 0x4 ADD PUSH1 0x40 MLOAD DUP1 SWAP2 SUB SWAP1 REVERT JUMPDEST PUSH0 DUP3 DUP2 MSTORE PUSH1 0x1 PUSH1 0x20 DUP2 SWAP1 MSTORE PUSH1 0x40 SWAP1 SWAP2 KECCAK256 ADD SLOAD DUP3 SWAP1 PUSH1 0x1 PUSH1 0x1 PUSH1 0x40 SHL SUB AND TIMESTAMP LT ISZERO PUSH2 0x32E JUMPI PUSH1 0x40 MLOAD PUSH4 0x654C00AD PUSH1 0xE1 SHL DUP2 MSTORE PUSH1 0x4 ADD PUSH1 0x40 MLOAD DUP1 SWAP2 SUB SWAP1 REVERT JUMPDEST PUSH0 DUP4 DUP2 MSTORE PUSH1 0x1 PUSH1 0x20 MSTORE PUSH1 0x40 SWAP1 KECCAK256 PUSH2 0x345 DUP5 CALLER PUSH2 0xD33 JUMP JUMPDEST PUSH2 0x362 JUMPI PUSH1 0x40 MLOAD PUSH4 0x1A27EAC3 PUSH1 0xE1 SHL DUP2 MSTORE PUSH1 0x4 ADD PUSH1 0x40 MLOAD DUP1 SWAP2 SUB SWAP1 REVERT JUMPDEST PUSH0 PUSH1 0x1 DUP3 ADD SLOAD PUSH1 0x1 PUSH1 0x48 SHL SWAP1 DIV PUSH1 0xFF AND PUSH1 0x2 DUP2 GT ISZERO PUSH2 0x383 JUMPI PUSH2 0x383 PUSH2 0x1200 JUMP JUMPDEST SUB PUSH2 0x3CA JUMPI PUSH1 0x1 DUP2 ADD DUP1 SLOAD PUSH1 0xFF PUSH1 0x48 SHL NOT AND PUSH1 0x1 PUSH1 0x48 SHL OR SWAP1 SSTORE PUSH1 0x40 MLOAD CALLER SWAP1 DUP6 SWAP1 PUSH32 0x471BD7F29713F61EB505F5A380FDB81D65E4B4023B30EA5D79BD5CE94CD12EE SWAP1 PUSH0 SWAP1 LOG3 JUMPDEST POP POP POP POP JUMP JUMPDEST PUSH1 0x1 PUSH1 0x1 PUSH1 0xA0 SHL SUB DUP2 AND PUSH0 SWAP1 DUP2 MSTORE PUSH1 0x2 PUSH1 0x20 SWAP1 DUP2 MSTORE PUSH1 0x40 SWAP2 DUP3 SWAP1 KECCAK256 DUP1 SLOAD DUP4 MLOAD DUP2 DUP5 MUL DUP2 ADD DUP5 ADD SWAP1 SWAP5 MSTORE DUP1 DUP5 MSTORE PUSH1 0x60 SWAP4 SWAP3 DUP4 ADD DUP3 DUP3 DUP1 ISZERO PUSH2 0x42D JUMPI PUSH1 0x20 MUL DUP3 ADD SWAP2 SWAP1 PUSH0 MSTORE PUSH1 0x20 PUSH0 KECCAK256 SWAP1 JUMPDEST DUP2 SLOAD DUP2 MSTORE PUSH1 0x20 ADD SWAP1 PUSH1 0x1 ADD SWAP1 DUP1 DUP4 GT PUSH2 0x419 JUMPI JUMPDEST POP POP POP POP POP SWAP1 POP SWAP2 SWAP1 POP JUMP JUMPDEST PUSH2 0x486 PUSH1 0x40 DUP1 MLOAD PUSH2 0x120 DUP2 ADD DUP3 MSTORE PUSH0 DUP1 DUP3 MSTORE PUSH1 0x20 DUP3 ADD DUP2 SWAP1 MSTORE SWAP2 DUP2 ADD DUP3 SWAP1 MSTORE SWAP1 PUSH1 0x60 DUP3 ADD SWAP1 DUP2 MSTORE PUSH1 0x20 ADD PUSH0 DUP2 MSTORE PUSH1 0x20 ADD PUSH0 DUP2 MSTORE PUSH1 0x20 ADD PUSH1 0x60 DUP2 MSTORE PUSH1 0x20 ADD PUSH1 0x60 DUP2 MSTORE PUSH1 0x20 ADD PUSH0 ISZERO ISZERO DUP2 MSTORE POP SWAP1 JUMP JUMPDEST DUP2 DUP1 ISZERO DUP1 PUSH2 0x494 JUMPI POP PUSH0 SLOAD DUP2 GT JUMPDEST ISZERO PUSH2 0x4B2 JUMPI PUSH1 0x40 MLOAD PUSH4 0x3926FE69 PUSH1 0xE2 SHL DUP2 MSTORE PUSH1 0x4 ADD PUSH1 0x40 MLOAD DUP1 SWAP2 SUB SWAP1 REVERT JUMPDEST PUSH0 DUP4 DUP2 MSTORE PUSH1 0x1 PUSH1 0x20 DUP2 DUP2 MSTORE PUSH1 0x40 SWAP3 DUP4 SWAP1 KECCAK256 DUP4 MLOAD PUSH2 0x120 DUP2 ADD DUP6 MSTORE DUP2 SLOAD PUSH1 0x1 PUSH1 0x1 PUSH1 0xA0 SHL SUB DUP2 AND DUP3 MSTORE PUSH1 0x1 PUSH1 0xA0 SHL SWAP1 DIV PUSH1 0x1 PUSH1 0x1 PUSH1 0x40 SHL SUB SWAP1 DUP2 AND SWAP4 DUP3 ADD SWAP4 SWAP1 SWAP4 MSTORE SWAP3 DUP2 ADD SLOAD SWAP2 DUP3 AND SWAP4 DUP4 ADD SWAP4 SWAP1 SWAP4 MSTORE SWAP1 SWAP2 SWAP1 PUSH1 0x60 DUP4 ADD SWAP1 PUSH1 0x1 PUSH1 0x40 SHL SWAP1 DIV PUSH1 0xFF AND PUSH1 0x2 DUP2 GT ISZERO PUSH2 0x524 JUMPI PUSH2 0x524 PUSH2 0x1200 JUMP JUMPDEST PUSH1 0x2 DUP2 GT ISZERO PUSH2 0x535 JUMPI PUSH2 0x535 PUSH2 0x1200 JUMP JUMPDEST DUP2 MSTORE PUSH1 0x20 ADD PUSH1 0x1 DUP3 ADD PUSH1 0x9 SWAP1 SLOAD SWAP1 PUSH2 0x100 EXP SWAP1 DIV PUSH1 0xFF AND PUSH1 0x2 DUP2 GT ISZERO PUSH2 0x55D JUMPI PUSH2 0x55D PUSH2 0x1200 JUMP JUMPDEST PUSH1 0x2 DUP2 GT ISZERO PUSH2 0x56E JUMPI PUSH2 0x56E PUSH2 0x1200 JUMP JUMPDEST DUP2 MSTORE PUSH1 0x20 ADD PUSH1 0x2 DUP3 ADD SLOAD DUP2 MSTORE PUSH1 0x20 ADD PUSH1 0x3 DUP3 ADD DUP1 SLOAD PUSH2 0x58C SWAP1 PUSH2 0x1586 JUMP JUMPDEST DUP1 PUSH1 0x1F ADD PUSH1 0x20 DUP1 SWAP2 DIV MUL PUSH1 0x20 ADD PUSH1 0x40 MLOAD SWAP1 DUP2 ADD PUSH1 0x40 MSTORE DUP1 SWAP3 SWAP2 SWAP1 DUP2 DUP2 MSTORE PUSH1 0x20 ADD DUP3 DUP1 SLOAD PUSH2 0x5B8 SWAP1 PUSH2 0x1586 JUMP JUMPDEST DUP1 ISZERO PUSH2 0x603 JUMPI DUP1 PUSH1 0x1F LT PUSH2 0x5DA JUMPI PUSH2 0x100 DUP1 DUP4 SLOAD DIV MUL DUP4 MSTORE SWAP2 PUSH1 0x20 ADD SWAP2 PUSH2 0x603 JUMP JUMPDEST DUP3 ADD SWAP2 SWAP1 PUSH0 MSTORE PUSH1 0x20 PUSH0 KECCAK256 SWAP1 JUMPDEST DUP2 SLOAD DUP2 MSTORE SWAP1 PUSH1 0x1 ADD SWAP1 PUSH1 0x20 ADD DUP1 DUP4 GT PUSH2 0x5E6 JUMPI DUP3 SWAP1 SUB PUSH1 0x1F AND DUP3 ADD SWAP2 JUMPDEST POP POP POP POP POP DUP2 MSTORE PUSH1 0x20 ADD PUSH1 0x4 DUP3 ADD DUP1 SLOAD DUP1 PUSH1 0x20 MUL PUSH1 0x20 ADD PUSH1 0x40 MLOAD SWAP1 DUP2 ADD PUSH1 0x40 MSTORE DUP1 SWAP3 SWAP2 SWAP1 DUP2 DUP2 MSTORE PUSH1 0x20 ADD PUSH0 SWAP1 JUMPDEST DUP3 DUP3 LT ISZERO PUSH2 0x6D8 JUMPI DUP4 DUP3 SWAP1 PUSH0 MSTORE PUSH1 0x20 PUSH0 KECCAK256 ADD DUP1 SLOAD PUSH2 0x64D SWAP1 PUSH2 0x1586 JUMP JUMPDEST DUP1 PUSH1 0x1F ADD PUSH1 0x20 DUP1 SWAP2 DIV MUL PUSH1 0x20 ADD PUSH1 0x40 MLOAD SWAP1 DUP2 ADD PUSH1 0x40 MSTORE DUP1 SWAP3 SWAP2 SWAP1 DUP2 DUP2 MSTORE PUSH1 0x20 ADD DUP3 DUP1 SLOAD PUSH2 0x679 SWAP1 PUSH2 0x1586 JUMP JUMPDEST DUP1 ISZERO PUSH2 0x6C4 JUMPI DUP1 PUSH1 0x1F LT PUSH2 0x69B JUMPI PUSH2 0x100 DUP1 DUP4 SLOAD DIV MUL DUP4 MSTORE SWAP2 PUSH1 0x20 ADD SWAP2 PUSH2 0x6C4 JUMP JUMPDEST DUP3 ADD SWAP2 SWAP1 PUSH0 MSTORE PUSH1 0x20 PUSH0 KECCAK256 SWAP1 JUMPDEST DUP2 SLOAD DUP2 MSTORE SWAP1 PUSH1 0x1 ADD SWAP1 PUSH1 0x20 ADD DUP1 DUP4 GT PUSH2 0x6A7 JUMPI DUP3 SWAP1 SUB PUSH1 0x1F AND DUP3 ADD SWAP2 JUMPDEST POP POP POP POP POP DUP2 MSTORE PUSH1 0x20 ADD SWAP1 PUSH1 0x1 ADD SWAP1 PUSH2 0x630 JUMP JUMPDEST POP POP POP SWAP1 DUP3 MSTORE POP PUSH1 0x5 SWAP2 SWAP1 SWAP2 ADD SLOAD PUSH1 0xFF AND ISZERO ISZERO PUSH1 0x20 SWAP1 SWAP2 ADD MSTORE SWAP2 POP JUMPDEST POP SWAP2 SWAP1 POP JUMP JUMPDEST DUP5 DUP1 ISZERO DUP1 PUSH2 0x708 JUMPI POP PUSH0 SLOAD DUP2 GT JUMPDEST ISZERO PUSH2 0x726 JUMPI PUSH1 0x40 MLOAD PUSH4 0x3926FE69 PUSH1 0xE2 SHL DUP2 MSTORE PUSH1 0x4 ADD PUSH1 0x40 MLOAD DUP1 SWAP2 SUB SWAP1 REVERT JUMPDEST PUSH0 DUP7 DUP2 MSTORE PUSH1 0x1 PUSH1 0x20 DUP2 SWAP1 MSTORE PUSH1 0x40 SWAP1 SWAP2 KECCAK256 ADD SLOAD DUP7 SWAP1 PUSH1 0x1 PUSH1 0x1 PUSH1 0x40 SHL SUB AND TIMESTAMP LT ISZERO PUSH2 0x763 JUMPI PUSH1 0x40 MLOAD PUSH4 0x654C00AD PUSH1 0xE1 SHL DUP2 MSTORE PUSH1 0x4 ADD PUSH1 0x40 MLOAD DUP1 SWAP2 SUB SWAP1 REVERT JUMPDEST PUSH0 DUP8 DUP2 MSTORE PUSH1 0x1 PUSH1 0x20 MSTORE PUSH1 0x40 SWAP1 KECCAK256 PUSH2 0x77A DUP9 CALLER PUSH2 0xD33 JUMP JUMPDEST PUSH2 0x797 JUMPI PUSH1 0x40 MLOAD PUSH4 0x1A27EAC3 PUSH1 0xE1 SHL DUP2 MSTORE PUSH1 0x4 ADD PUSH1 0x40 MLOAD DUP1 SWAP2 SUB SWAP1 REVERT JUMPDEST PUSH1 0x2 PUSH1 0x1 DUP3 ADD SLOAD PUSH1 0x1 PUSH1 0x48 SHL SWAP1 DIV PUSH1 0xFF AND PUSH1 0x2 DUP2 GT ISZERO PUSH2 0x7B9 JUMPI PUSH2 0x7B9 PUSH2 0x1200 JUMP JUMPDEST SUB PUSH2 0x7D7 JUMPI PUSH1 0x40 MLOAD PUSH4 0x284DF11B PUSH1 0xE1 SHL DUP2 MSTORE PUSH1 0x4 ADD PUSH1 0x40 MLOAD DUP1 SWAP2 SUB SWAP1 REVERT JUMPDEST PUSH0 DUP8 DUP8 PUSH1 0x40 MLOAD PUSH2 0x7E8 SWAP3 SWAP2 SWAP1 PUSH2 0x15B8 JUMP JUMPDEST PUSH1 0x40 MLOAD DUP1 SWAP2 SUB SWAP1 KECCAK256 SWAP1 POP DUP2 PUSH1 0x2 ADD SLOAD DUP2 EQ PUSH2 0x816 JUMPI PUSH1 0x40 MLOAD PUSH4 0x3F4D6053 PUSH1 0xE0 SHL DUP2 MSTORE PUSH1 0x4 ADD PUSH1 0x40 MLOAD DUP1 SWAP2 SUB SWAP1 REVERT JUMPDEST PUSH1 0x1 DUP3 ADD DUP1 SLOAD PUSH1 0xFF PUSH1 0x48 SHL NOT AND PUSH10 0x2000000000000000000 OR SWAP1 SSTORE DUP5 ISZERO PUSH2 0x848 JUMPI PUSH1 0x3 DUP3 ADD PUSH2 0x846 DUP7 DUP9 DUP4 PUSH2 0x1627 JUMP JUMPDEST POP JUMPDEST CALLER PUSH1 0x1 PUSH1 0x1 PUSH1 0xA0 SHL SUB AND DUP10 PUSH32 0x8D1112661232467ED4950800400BB39B8D16D296CDF515AD9BB7B416E8CA64A5 DUP9 DUP9 PUSH1 0x40 MLOAD PUSH2 0x884 SWAP3 SWAP2 SWAP1 PUSH2 0x16E0 JUMP JUMPDEST PUSH1 0x40 MLOAD DUP1 SWAP2 SUB SWAP1 LOG3 POP POP POP POP POP POP POP POP POP JUMP JUMPDEST PUSH1 0x4 SLOAD PUSH1 0x1 PUSH1 0x1 PUSH1 0xA0 SHL SUB AND CALLER EQ PUSH2 0x8F6 JUMPI PUSH1 0x40 MLOAD PUSH3 0x461BCD PUSH1 0xE5 SHL DUP2 MSTORE PUSH1 0x20 PUSH1 0x4 DUP3 ADD MSTORE PUSH1 0x1C PUSH1 0x24 DUP3 ADD MSTORE PUSH32 0x4F6E6C792074726561737572792063616E207570646174652066656500000000 PUSH1 0x44 DUP3 ADD MSTORE PUSH1 0x64 ADD JUMPDEST PUSH1 0x40 MLOAD DUP1 SWAP2 SUB SWAP1 REVERT JUMPDEST PUSH1 0x3 SSTORE JUMP JUMPDEST PUSH0 DUP3 DUP1 ISZERO DUP1 PUSH2 0x90A JUMPI POP PUSH0 SLOAD DUP2 GT JUMPDEST ISZERO PUSH2 0x928 JUMPI PUSH1 0x40 MLOAD PUSH4 0x3926FE69 PUSH1 0xE2 SHL DUP2 MSTORE PUSH1 0x4 ADD PUSH1 0x40 MLOAD DUP1 SWAP2 SUB SWAP1 REVERT JUMPDEST PUSH2 0x932 DUP5 DUP5 PUSH2 0xD33 JUMP JUMPDEST SWAP5 SWAP4 POP POP POP POP JUMP JUMPDEST PUSH0 TIMESTAMP PUSH2 0x949 PUSH3 0x15180 DUP3 PUSH2 0x1722 JUMP JUMPDEST PUSH1 0x1 PUSH1 0x1 PUSH1 0x40 SHL SUB AND DUP7 PUSH1 0x1 PUSH1 0x1 PUSH1 0x40 SHL SUB AND GT ISZERO DUP1 PUSH2 0x987 JUMPI POP PUSH2 0x972 PUSH4 0x12CC0300 DUP3 PUSH2 0x1722 JUMP JUMPDEST PUSH1 0x1 PUSH1 0x1 PUSH1 0x40 SHL SUB AND DUP7 PUSH1 0x1 PUSH1 0x1 PUSH1 0x40 SHL SUB AND GT JUMPDEST ISZERO PUSH2 0x9A5 JUMPI PUSH1 0x40 MLOAD PUSH4 0x52ABA6D3 PUSH1 0xE1 SHL DUP2 MSTORE PUSH1 0x4 ADD PUSH1 0x40 MLOAD DUP1 SWAP2 SUB SWAP1 REVERT JUMPDEST PUSH1 0x3 SLOAD CALLVALUE LT ISZERO PUSH2 0x9C7 JUMPI PUSH1 0x40 MLOAD PUSH3 0x976F75 PUSH1 0xE2 SHL DUP2 MSTORE PUSH1 0x4 ADD PUSH1 0x40 MLOAD DUP1 SWAP2 SUB SWAP1 REVERT JUMPDEST PUSH0 PUSH0 DUP2 SLOAD PUSH2 0x9D4 SWAP1 PUSH2 0x1741 JUMP JUMPDEST SWAP2 SWAP1 POP DUP2 SWAP1 SSTORE SWAP2 POP PUSH1 0x40 MLOAD DUP1 PUSH2 0x120 ADD PUSH1 0x40 MSTORE DUP1 CALLER PUSH1 0x1 PUSH1 0x1 PUSH1 0xA0 SHL SUB AND DUP2 MSTORE PUSH1 0x20 ADD DUP3 PUSH1 0x1 PUSH1 0x1 PUSH1 0x40 SHL SUB AND DUP2 MSTORE PUSH1 0x20 ADD DUP8 PUSH1 0x1 PUSH1 0x1 PUSH1 0x40 SHL SUB AND DUP2 MSTORE PUSH1 0x20 ADD DUP12 PUSH1 0x2 DUP2 GT ISZERO PUSH2 0xA27 JUMPI PUSH2 0xA27 PUSH2 0x1200 JUMP JUMPDEST DUP2 MSTORE PUSH1 0x20 ADD PUSH0 DUP2 MSTORE PUSH1 0x20 ADD DUP11 DUP2 MSTORE PUSH1 0x20 ADD DUP10 DUP10 DUP1 DUP1 PUSH1 0x1F ADD PUSH1 0x20 DUP1 SWAP2 DIV MUL PUSH1 0x20 ADD PUSH1 0x40 MLOAD SWAP1 DUP2 ADD PUSH1 0x40 MSTORE DUP1 SWAP4 SWAP3 SWAP2 SWAP1 DUP2 DUP2 MSTORE PUSH1 0x20 ADD DUP4 DUP4 DUP1 DUP3 DUP5 CALLDATACOPY PUSH0 SWAP3 ADD SWAP2 SWAP1 SWAP2 MSTORE POP POP POP SWAP1 DUP3 MSTORE POP PUSH1 0x20 ADD PUSH2 0xA7D DUP7 DUP9 PUSH2 0x1789 JUMP JUMPDEST DUP2 MSTORE DUP5 ISZERO ISZERO PUSH1 0x20 SWAP2 DUP3 ADD MSTORE PUSH0 DUP5 DUP2 MSTORE PUSH1 0x1 DUP1 DUP4 MSTORE PUSH1 0x40 SWAP2 DUP3 SWAP1 KECCAK256 DUP5 MLOAD DUP2 SLOAD SWAP5 DUP7 ADD MLOAD PUSH1 0x1 PUSH1 0x1 PUSH1 0x40 SHL SUB SWAP1 DUP2 AND PUSH1 0x1 PUSH1 0xA0 SHL MUL PUSH1 0x1 PUSH1 0x1 PUSH1 0xE0 SHL SUB NOT SWAP1 SWAP7 AND PUSH1 0x1 PUSH1 0x1 PUSH1 0xA0 SHL SUB SWAP1 SWAP3 AND SWAP2 SWAP1 SWAP2 OR SWAP5 SWAP1 SWAP5 OR DUP2 SSTORE SWAP2 DUP5 ADD MLOAD SWAP1 DUP3 ADD DUP1 SLOAD SWAP2 SWAP1 SWAP4 AND PUSH8 0xFFFFFFFFFFFFFFFF NOT DUP3 AND DUP2 OR DUP5 SSTORE PUSH1 0x60 DUP6 ADD MLOAD SWAP3 SWAP4 SWAP2 PUSH9 0xFFFFFFFFFFFFFFFFFF NOT AND OR PUSH1 0x1 PUSH1 0x40 SHL DUP4 PUSH1 0x2 DUP2 GT ISZERO PUSH2 0xB1A JUMPI PUSH2 0xB1A PUSH2 0x1200 JUMP JUMPDEST MUL OR SWAP1 SSTORE POP PUSH1 0x80 DUP3 ADD MLOAD PUSH1 0x1 DUP3 ADD DUP1 SLOAD PUSH1 0xFF PUSH1 0x48 SHL NOT AND PUSH1 0x1 PUSH1 0x48 SHL DUP4 PUSH1 0x2 DUP2 GT ISZERO PUSH2 0xB48 JUMPI PUSH2 0xB48 PUSH2 0x1200 JUMP JUMPDEST MUL OR SWAP1 SSTORE POP PUSH1 0xA0 DUP3 ADD MLOAD PUSH1 0x2 DUP3 ADD SSTORE PUSH1 0xC0 DUP3 ADD MLOAD PUSH1 0x3 DUP3 ADD SWAP1 PUSH2 0xB6B SWAP1 DUP3 PUSH2 0x186B JUMP JUMPDEST POP PUSH1 0xE0 DUP3 ADD MLOAD DUP1 MLOAD PUSH2 0xB87 SWAP2 PUSH1 0x4 DUP5 ADD SWAP2 PUSH1 0x20 SWAP1 SWAP2 ADD SWAP1 PUSH2 0x10AE JUMP JUMPDEST POP PUSH2 0x100 SWAP2 SWAP1 SWAP2 ADD MLOAD PUSH1 0x5 SWAP1 SWAP2 ADD DUP1 SLOAD PUSH1 0xFF NOT AND SWAP2 ISZERO ISZERO SWAP2 SWAP1 SWAP2 OR SWAP1 SSTORE CALLER PUSH0 SWAP1 DUP2 MSTORE PUSH1 0x2 PUSH1 0x20 SWAP1 DUP2 MSTORE PUSH1 0x40 DUP3 KECCAK256 DUP1 SLOAD PUSH1 0x1 DUP2 ADD DUP3 SSTORE SWAP1 DUP4 MSTORE SWAP2 KECCAK256 ADD DUP3 SWAP1 SSTORE PUSH1 0x3 SLOAD ISZERO DUP1 ISZERO SWAP1 PUSH2 0xBE0 JUMPI POP PUSH1 0x4 SLOAD PUSH1 0x1 PUSH1 0x1 PUSH1 0xA0 SHL SUB AND ISZERO ISZERO JUMPDEST ISZERO PUSH2 0xC20 JUMPI PUSH1 0x4 SLOAD PUSH1 0x3 SLOAD PUSH1 0x40 MLOAD PUSH1 0x1 PUSH1 0x1 PUSH1 0xA0 SHL SUB SWAP1 SWAP3 AND SWAP2 DUP2 ISZERO PUSH2 0x8FC MUL SWAP2 SWAP1 PUSH0 DUP2 DUP2 DUP2 DUP6 DUP9 DUP9 CALL SWAP4 POP POP POP POP ISZERO DUP1 ISZERO PUSH2 0xC1E JUMPI RETURNDATASIZE PUSH0 PUSH0 RETURNDATACOPY RETURNDATASIZE PUSH0 REVERT JUMPDEST POP JUMPDEST PUSH1 0x3 SLOAD CALLVALUE GT ISZERO PUSH2 0xC64 JUMPI PUSH1 0x3 SLOAD CALLER SWAP1 PUSH2 0x8FC SWAP1 PUSH2 0xC3D SWAP1 CALLVALUE PUSH2 0x1925 JUMP JUMPDEST PUSH1 0x40 MLOAD DUP2 ISZERO SWAP1 SWAP3 MUL SWAP2 PUSH0 DUP2 DUP2 DUP2 DUP6 DUP9 DUP9 CALL SWAP4 POP POP POP POP ISZERO DUP1 ISZERO PUSH2 0xC62 JUMPI RETURNDATASIZE PUSH0 PUSH0 RETURNDATACOPY RETURNDATASIZE PUSH0 REVERT JUMPDEST POP JUMPDEST CALLER PUSH1 0x1 PUSH1 0x1 PUSH1 0xA0 SHL SUB AND DUP3 PUSH32 0xB3C4C7B28BAF8AF82896D6F8A91D921EDE5583F788A20DE9FDB41C1CF5816EBF DUP9 DUP14 DUP14 PUSH1 0x40 MLOAD PUSH2 0xCA2 SWAP4 SWAP3 SWAP2 SWAP1 PUSH2 0x1938 JUMP JUMPDEST PUSH1 0x40 MLOAD DUP1 SWAP2 SUB SWAP1 LOG3 POP SWAP9 SWAP8 POP POP POP POP POP POP POP POP JUMP JUMPDEST PUSH1 0x4 SLOAD PUSH1 0x1 PUSH1 0x1 PUSH1 0xA0 SHL SUB AND CALLER EQ PUSH2 0xD11 JUMPI PUSH1 0x40 MLOAD PUSH3 0x461BCD PUSH1 0xE5 SHL DUP2 MSTORE PUSH1 0x20 PUSH1 0x4 DUP3 ADD DUP2 SWAP1 MSTORE PUSH1 0x24 DUP3 ADD MSTORE PUSH32 0x4F6E6C792074726561737572792063616E207570646174652061646472657373 PUSH1 0x44 DUP3 ADD MSTORE PUSH1 0x64 ADD PUSH2 0x8ED JUMP JUMPDEST PUSH1 0x4 DUP1 SLOAD PUSH1 0x1 PUSH1 0x1 PUSH1 0xA0 SHL SUB NOT AND PUSH1 0x1 PUSH1 0x1 PUSH1 0xA0 SHL SUB SWAP3 SWAP1 SWAP3 AND SWAP2 SWAP1 SWAP2 OR SWAP1 SSTORE JUMP JUMPDEST PUSH0 DUP3 DUP2 MSTORE PUSH1 0x1 PUSH1 0x20 MSTORE PUSH1 0x40 DUP2 KECCAK256 DUP1 SLOAD PUSH1 0x1 PUSH1 0x1 PUSH1 0xA0 SHL SUB DUP1 DUP6 AND SWAP2 AND SUB PUSH2 0xD5E JUMPI PUSH1 0x1 SWAP2 POP POP PUSH2 0xE76 JUMP JUMPDEST PUSH0 PUSH2 0xD68 DUP5 PUSH2 0xE7C JUMP JUMPDEST SWAP1 POP PUSH0 JUMPDEST PUSH1 0x4 DUP4 ADD SLOAD DUP2 LT ISZERO PUSH2 0xE3E JUMPI PUSH2 0xE25 DUP4 PUSH1 0x4 ADD DUP3 DUP2 SLOAD DUP2 LT PUSH2 0xD90 JUMPI PUSH2 0xD90 PUSH2 0x1962 JUMP JUMPDEST SWAP1 PUSH0 MSTORE PUSH1 0x20 PUSH0 KECCAK256 ADD DUP1 SLOAD PUSH2 0xDA3 SWAP1 PUSH2 0x1586 JUMP JUMPDEST DUP1 PUSH1 0x1F ADD PUSH1 0x20 DUP1 SWAP2 DIV MUL PUSH1 0x20 ADD PUSH1 0x40 MLOAD SWAP1 DUP2 ADD PUSH1 0x40 MSTORE DUP1 SWAP3 SWAP2 SWAP1 DUP2 DUP2 MSTORE PUSH1 0x20 ADD DUP3 DUP1 SLOAD PUSH2 0xDCF SWAP1 PUSH2 0x1586 JUMP JUMPDEST DUP1 ISZERO PUSH2 0xE1A JUMPI DUP1 PUSH1 0x1F LT PUSH2 0xDF1 JUMPI PUSH2 0x100 DUP1 DUP4 SLOAD DIV MUL DUP4 MSTORE SWAP2 PUSH1 0x20 ADD SWAP2 PUSH2 0xE1A JUMP JUMPDEST DUP3 ADD SWAP2 SWAP1 PUSH0 MSTORE PUSH1 0x20 PUSH0 KECCAK256 SWAP1 JUMPDEST DUP2 SLOAD DUP2 MSTORE SWAP1 PUSH1 0x1 ADD SWAP1 PUSH1 0x20 ADD DUP1 DUP4 GT PUSH2 0xDFD JUMPI DUP3 SWAP1 SUB PUSH1 0x1F AND DUP3 ADD SWAP2 JUMPDEST POP POP POP POP POP DUP4 PUSH2 0x1056 JUMP JUMPDEST ISZERO PUSH2 0xE36 JUMPI PUSH1 0x1 SWAP4 POP POP POP POP PUSH2 0xE76 JUMP JUMPDEST PUSH1 0x1 ADD PUSH2 0xD6C JUMP JUMPDEST POP PUSH1 0x5 DUP3 ADD SLOAD PUSH1 0xFF AND DUP1 ISZERO PUSH2 0xE60 JUMPI POP PUSH1 0x1 DUP3 ADD SLOAD PUSH1 0x1 PUSH1 0x1 PUSH1 0x40 SHL SUB AND TIMESTAMP LT ISZERO JUMPDEST ISZERO PUSH2 0xE70 JUMPI PUSH1 0x1 SWAP3 POP POP POP PUSH2 0xE76 JUMP JUMPDEST PUSH0 SWAP3 POP POP POP JUMPDEST SWAP3 SWAP2 POP POP JUMP JUMPDEST PUSH1 0x40 DUP1 MLOAD DUP1 DUP3 ADD DUP3 MSTORE PUSH1 0x10 DUP2 MSTORE PUSH16 0x181899199A1A9B1B9C1CB0B131B232B3 PUSH1 0x81 SHL PUSH1 0x20 DUP3 ADD MSTORE DUP2 MLOAD PUSH1 0x2A DUP1 DUP3 MSTORE PUSH1 0x60 DUP3 DUP2 ADD SWAP1 SWAP5 MSTORE PUSH1 0x1 PUSH1 0x1 PUSH1 0xA0 SHL SUB DUP6 AND SWAP3 SWAP2 PUSH0 SWAP2 PUSH1 0x20 DUP3 ADD DUP2 DUP1 CALLDATASIZE DUP4 CALLDATACOPY ADD SWAP1 POP POP SWAP1 POP PUSH1 0x3 PUSH1 0xFC SHL DUP2 PUSH0 DUP2 MLOAD DUP2 LT PUSH2 0xEE5 JUMPI PUSH2 0xEE5 PUSH2 0x1962 JUMP JUMPDEST PUSH1 0x20 ADD ADD SWAP1 PUSH1 0x1 PUSH1 0x1 PUSH1 0xF8 SHL SUB NOT AND SWAP1 DUP2 PUSH0 BYTE SWAP1 MSTORE8 POP PUSH1 0xF PUSH1 0xFB SHL DUP2 PUSH1 0x1 DUP2 MLOAD DUP2 LT PUSH2 0xF13 JUMPI PUSH2 0xF13 PUSH2 0x1962 JUMP JUMPDEST PUSH1 0x20 ADD ADD SWAP1 PUSH1 0x1 PUSH1 0x1 PUSH1 0xF8 SHL SUB NOT AND SWAP1 DUP2 PUSH0 BYTE SWAP1 MSTORE8 POP PUSH0 JUMPDEST PUSH1 0x14 DUP2 LT ISZERO PUSH2 0x104D JUMPI DUP3 PUSH1 0x4 DUP6 PUSH2 0xF43 DUP5 PUSH1 0xC PUSH2 0x1976 JUMP JUMPDEST PUSH1 0x20 DUP2 LT PUSH2 0xF53 JUMPI PUSH2 0xF53 PUSH2 0x1962 JUMP JUMPDEST BYTE PUSH1 0xF8 SHL PUSH1 0x1 PUSH1 0x1 PUSH1 0xF8 SHL SUB NOT AND SWAP1 SHR PUSH1 0xF8 SHR PUSH1 0xFF AND DUP2 MLOAD DUP2 LT PUSH2 0xF79 JUMPI PUSH2 0xF79 PUSH2 0x1962 JUMP JUMPDEST ADD PUSH1 0x20 ADD MLOAD PUSH1 0x1 PUSH1 0x1 PUSH1 0xF8 SHL SUB NOT AND DUP3 PUSH2 0xF94 DUP4 PUSH1 0x2 PUSH2 0x1989 JUMP JUMPDEST PUSH2 0xF9F SWAP1 PUSH1 0x2 PUSH2 0x1976 JUMP JUMPDEST DUP2 MLOAD DUP2 LT PUSH2 0xFAF JUMPI PUSH2 0xFAF PUSH2 0x1962 JUMP JUMPDEST PUSH1 0x20 ADD ADD SWAP1 PUSH1 0x1 PUSH1 0x1 PUSH1 0xF8 SHL SUB NOT AND SWAP1 DUP2 PUSH0 BYTE SWAP1 MSTORE8 POP DUP3 DUP5 PUSH2 0xFD2 DUP4 PUSH1 0xC PUSH2 0x1976 JUMP JUMPDEST PUSH1 0x20 DUP2 LT PUSH2 0xFE2 JUMPI PUSH2 0xFE2 PUSH2 0x1962 JUMP JUMPDEST DUP3 MLOAD SWAP2 SWAP1 BYTE PUSH1 0xF AND SWAP1 DUP2 LT PUSH2 0xFF9 JUMPI PUSH2 0xFF9 PUSH2 0x1962 JUMP JUMPDEST ADD PUSH1 0x20 ADD MLOAD PUSH1 0x1 PUSH1 0x1 PUSH1 0xF8 SHL SUB NOT AND DUP3 PUSH2 0x1014 DUP4 PUSH1 0x2 PUSH2 0x1989 JUMP JUMPDEST PUSH2 0x101F SWAP1 PUSH1 0x3 PUSH2 0x1976 JUMP JUMPDEST DUP2 MLOAD DUP2 LT PUSH2 0x102F JUMPI PUSH2 0x102F PUSH2 0x1962 JUMP JUMPDEST PUSH1 0x20 ADD ADD SWAP1 PUSH1 0x1 PUSH1 0x1 PUSH1 0xF8 SHL SUB NOT AND SWAP1 DUP2 PUSH0 BYTE SWAP1 MSTORE8 POP PUSH1 0x1 ADD PUSH2 0xF2B JUMP JUMPDEST POP SWAP5 SWAP4 POP POP POP POP JUMP JUMPDEST PUSH0 DUP2 PUSH1 0x40 MLOAD PUSH1 0x20 ADD PUSH2 0x1068 SWAP2 SWAP1 PUSH2 0x19A0 JUMP JUMPDEST PUSH1 0x40 MLOAD PUSH1 0x20 DUP2 DUP4 SUB SUB DUP2 MSTORE SWAP1 PUSH1 0x40 MSTORE DUP1 MLOAD SWAP1 PUSH1 0x20 ADD KECCAK256 DUP4 PUSH1 0x40 MLOAD PUSH1 0x20 ADD PUSH2 0x108F SWAP2 SWAP1 PUSH2 0x19A0 JUMP JUMPDEST PUSH1 0x40 MLOAD PUSH1 0x20 DUP2 DUP4 SUB SUB DUP2 MSTORE SWAP1 PUSH1 0x40 MSTORE DUP1 MLOAD SWAP1 PUSH1 0x20 ADD KECCAK256 EQ SWAP1 POP SWAP3 SWAP2 POP POP JUMP JUMPDEST DUP3 DUP1 SLOAD DUP3 DUP3 SSTORE SWAP1 PUSH0 MSTORE PUSH1 0x20 PUSH0 KECCAK256 SWAP1 DUP2 ADD SWAP3 DUP3 ISZERO PUSH2 0x10F2 JUMPI SWAP2 PUSH1 0x20 MUL DUP3 ADD JUMPDEST DUP3 DUP2 GT ISZERO PUSH2 0x10F2 JUMPI DUP3 MLOAD DUP3 SWAP1 PUSH2 0x10E2 SWAP1 DUP3 PUSH2 0x186B JUMP JUMPDEST POP SWAP2 PUSH1 0x20 ADD SWAP2 SWAP1 PUSH1 0x1 ADD SWAP1 PUSH2 0x10CC JUMP JUMPDEST POP PUSH2 0x10FE SWAP3 SWAP2 POP PUSH2 0x1102 JUMP JUMPDEST POP SWAP1 JUMP JUMPDEST DUP1 DUP3 GT ISZERO PUSH2 0x10FE JUMPI PUSH0 PUSH2 0x1115 DUP3 DUP3 PUSH2 0x111E JUMP JUMPDEST POP PUSH1 0x1 ADD PUSH2 0x1102 JUMP JUMPDEST POP DUP1 SLOAD PUSH2 0x112A SWAP1 PUSH2 0x1586 JUMP JUMPDEST PUSH0 DUP3 SSTORE DUP1 PUSH1 0x1F LT PUSH2 0x1139 JUMPI POP POP JUMP JUMPDEST PUSH1 0x1F ADD PUSH1 0x20 SWAP1 DIV SWAP1 PUSH0 MSTORE PUSH1 0x20 PUSH0 KECCAK256 SWAP1 DUP2 ADD SWAP1 PUSH2 0x1155 SWAP2 SWAP1 PUSH2 0x1158 JUMP JUMPDEST POP JUMP JUMPDEST JUMPDEST DUP1 DUP3 GT ISZERO PUSH2 0x10FE JUMPI PUSH0 DUP2 SSTORE PUSH1 0x1 ADD PUSH2 0x1159 JUMP JUMPDEST PUSH0 PUSH1 0x20 DUP3 DUP5 SUB SLT ISZERO PUSH2 0x117C JUMPI PUSH0 PUSH0 REVERT JUMPDEST POP CALLDATALOAD SWAP2 SWAP1 POP JUMP JUMPDEST DUP1 CALLDATALOAD PUSH1 0x1 PUSH1 0x1 PUSH1 0xA0 SHL SUB DUP2 AND DUP2 EQ PUSH2 0x1199 JUMPI PUSH0 PUSH0 REVERT JUMPDEST SWAP2 SWAP1 POP JUMP JUMPDEST PUSH0 PUSH1 0x20 DUP3 DUP5 SUB SLT ISZERO PUSH2 0x11AE JUMPI PUSH0 PUSH0 REVERT JUMPDEST PUSH2 0x11B7 DUP3 PUSH2 0x1183 JUMP JUMPDEST SWAP4 SWAP3 POP POP POP JUMP JUMPDEST PUSH1 0x20 DUP1 DUP3 MSTORE DUP3 MLOAD DUP3 DUP3 ADD DUP2 SWAP1 MSTORE PUSH0 SWAP2 DUP5 ADD SWAP1 PUSH1 0x40 DUP5 ADD SWAP1 DUP4 JUMPDEST DUP2 DUP2 LT ISZERO PUSH2 0x11F5 JUMPI DUP4 MLOAD DUP4 MSTORE PUSH1 0x20 SWAP4 DUP5 ADD SWAP4 SWAP1 SWAP3 ADD SWAP2 PUSH1 0x1 ADD PUSH2 0x11D7 JUMP JUMPDEST POP SWAP1 SWAP6 SWAP5 POP POP POP POP POP JUMP JUMPDEST PUSH4 0x4E487B71 PUSH1 0xE0 SHL PUSH0 MSTORE PUSH1 0x21 PUSH1 0x4 MSTORE PUSH1 0x24 PUSH0 REVERT JUMPDEST PUSH1 0x3 DUP2 LT PUSH2 0x1155 JUMPI PUSH4 0x4E487B71 PUSH1 0xE0 SHL PUSH0 MSTORE PUSH1 0x21 PUSH1 0x4 MSTORE PUSH1 0x24 PUSH0 REVERT JUMPDEST PUSH2 0x1239 DUP2 PUSH2 0x1214 JUMP JUMPDEST SWAP1 MSTORE JUMP JUMPDEST PUSH0 DUP2 MLOAD DUP1 DUP5 MSTORE DUP1 PUSH1 0x20 DUP5 ADD PUSH1 0x20 DUP7 ADD MCOPY PUSH0 PUSH1 0x20 DUP3 DUP7 ADD ADD MSTORE PUSH1 0x20 PUSH1 0x1F NOT PUSH1 0x1F DUP4 ADD AND DUP6 ADD ADD SWAP2 POP POP SWAP3 SWAP2 POP POP JUMP JUMPDEST PUSH0 DUP3 DUP3 MLOAD DUP1 DUP6 MSTORE PUSH1 0x20 DUP6 ADD SWAP5 POP PUSH1 0x20 DUP2 PUSH1 0x5 SHL DUP4 ADD ADD PUSH1 0x20 DUP6 ADD PUSH0 JUMPDEST DUP4 DUP2 LT ISZERO PUSH2 0x12B9 JUMPI PUSH1 0x1F NOT DUP6 DUP5 SUB ADD DUP9 MSTORE PUSH2 0x12A3 DUP4 DUP4 MLOAD PUSH2 0x123D JUMP JUMPDEST PUSH1 0x20 SWAP9 DUP10 ADD SWAP9 SWAP1 SWAP4 POP SWAP2 SWAP1 SWAP2 ADD SWAP1 PUSH1 0x1 ADD PUSH2 0x1287 JUMP JUMPDEST POP SWAP1 SWAP7 SWAP6 POP POP POP POP POP POP JUMP JUMPDEST PUSH1 0x20 DUP2 MSTORE PUSH2 0x12DF PUSH1 0x20 DUP3 ADD DUP4 MLOAD PUSH1 0x1 PUSH1 0x1 PUSH1 0xA0 SHL SUB AND SWAP1 MSTORE JUMP JUMPDEST PUSH0 PUSH1 0x20 DUP4 ADD MLOAD PUSH2 0x12FA PUSH1 0x40 DUP5 ADD DUP3 PUSH1 0x1 PUSH1 0x1 PUSH1 0x40 SHL SUB AND SWAP1 MSTORE JUMP JUMPDEST POP PUSH1 0x40 DUP4 ADD MLOAD PUSH1 0x1 PUSH1 0x1 PUSH1 0x40 SHL SUB DUP2 AND PUSH1 0x60 DUP5 ADD MSTORE POP PUSH1 0x60 DUP4 ADD MLOAD PUSH2 0x1322 PUSH1 0x80 DUP5 ADD DUP3 PUSH2 0x1230 JUMP JUMPDEST POP PUSH1 0x80 DUP4 ADD MLOAD PUSH2 0x1335 PUSH1 0xA0 DUP5 ADD DUP3 PUSH2 0x1230 JUMP JUMPDEST POP PUSH1 0xA0 DUP4 ADD MLOAD PUSH1 0xC0 DUP4 ADD MSTORE PUSH1 0xC0 DUP4 ADD MLOAD PUSH2 0x120 PUSH1 0xE0 DUP5 ADD MSTORE PUSH2 0x135B PUSH2 0x140 DUP5 ADD DUP3 PUSH2 0x123D JUMP JUMPDEST SWAP1 POP PUSH1 0xE0 DUP5 ADD MLOAD PUSH1 0x1F NOT DUP5 DUP4 SUB ADD PUSH2 0x100 DUP6 ADD MSTORE PUSH2 0x1379 DUP3 DUP3 PUSH2 0x126B JUMP JUMPDEST SWAP2 POP POP PUSH2 0x100 DUP5 ADD MLOAD PUSH2 0x1391 PUSH2 0x120 DUP6 ADD DUP3 ISZERO ISZERO SWAP1 MSTORE JUMP JUMPDEST POP SWAP4 SWAP3 POP POP POP JUMP JUMPDEST PUSH0 PUSH0 DUP4 PUSH1 0x1F DUP5 ADD SLT PUSH2 0x13A9 JUMPI PUSH0 PUSH0 REVERT JUMPDEST POP DUP2 CALLDATALOAD PUSH1 0x1 PUSH1 0x1 PUSH1 0x40 SHL SUB DUP2 GT ISZERO PUSH2 0x13BF JUMPI PUSH0 PUSH0 REVERT JUMPDEST PUSH1 0x20 DUP4 ADD SWAP2 POP DUP4 PUSH1 0x20 DUP3 DUP6 ADD ADD GT ISZERO PUSH2 0x13D6 JUMPI PUSH0 PUSH0 REVERT JUMPDEST SWAP3 POP SWAP3 SWAP1 POP JUMP JUMPDEST PUSH0 PUSH0 PUSH0 PUSH0 PUSH0 PUSH1 0x60 DUP7 DUP9 SUB SLT ISZERO PUSH2 0x13F1 JUMPI PUSH0 PUSH0 REVERT JUMPDEST DUP6 CALLDATALOAD SWAP5 POP PUSH1 0x20 DUP7 ADD CALLDATALOAD PUSH1 0x1 PUSH1 0x1 PUSH1 0x40 SHL SUB DUP2 GT ISZERO PUSH2 0x140D JUMPI PUSH0 PUSH0 REVERT JUMPDEST PUSH2 0x1419 DUP9 DUP3 DUP10 ADD PUSH2 0x1399 JUMP JUMPDEST SWAP1 SWAP6 POP SWAP4 POP POP PUSH1 0x40 DUP7 ADD CALLDATALOAD PUSH1 0x1 PUSH1 0x1 PUSH1 0x40 SHL SUB DUP2 GT ISZERO PUSH2 0x1437 JUMPI PUSH0 PUSH0 REVERT JUMPDEST PUSH2 0x1443 DUP9 DUP3 DUP10 ADD PUSH2 0x1399 JUMP JUMPDEST SWAP7 SWAP10 SWAP6 SWAP9 POP SWAP4 SWAP7 POP SWAP3 SWAP5 SWAP4 SWAP3 POP POP POP JUMP JUMPDEST PUSH0 PUSH0 PUSH1 0x40 DUP4 DUP6 SUB SLT ISZERO PUSH2 0x1465 JUMPI PUSH0 PUSH0 REVERT JUMPDEST DUP3 CALLDATALOAD SWAP2 POP PUSH2 0x1475 PUSH1 0x20 DUP5 ADD PUSH2 0x1183 JUMP JUMPDEST SWAP1 POP SWAP3 POP SWAP3 SWAP1 POP JUMP JUMPDEST PUSH0 PUSH0 DUP4 PUSH1 0x1F DUP5 ADD SLT PUSH2 0x148E JUMPI PUSH0 PUSH0 REVERT JUMPDEST POP DUP2 CALLDATALOAD PUSH1 0x1 PUSH1 0x1 PUSH1 0x40 SHL SUB DUP2 GT ISZERO PUSH2 0x14A4 JUMPI PUSH0 PUSH0 REVERT JUMPDEST PUSH1 0x20 DUP4 ADD SWAP2 POP DUP4 PUSH1 0x20 DUP3 PUSH1 0x5 SHL DUP6 ADD ADD GT ISZERO PUSH2 0x13D6 JUMPI PUSH0 PUSH0 REVERT JUMPDEST DUP1 CALLDATALOAD DUP1 ISZERO ISZERO DUP2 EQ PUSH2 0x1199 JUMPI PUSH0 PUSH0 REVERT JUMPDEST PUSH0 PUSH0 PUSH0 PUSH0 PUSH0 PUSH0 PUSH0 PUSH0 PUSH1 0xC0 DUP10 DUP12 SUB SLT ISZERO PUSH2 0x14E4 JUMPI PUSH0 PUSH0 REVERT JUMPDEST DUP9 CALLDATALOAD PUSH1 0x3 DUP2 LT PUSH2 0x14F2 JUMPI PUSH0 PUSH0 REVERT JUMPDEST SWAP8 POP PUSH1 0x20 DUP10 ADD CALLDATALOAD SWAP7 POP PUSH1 0x40 DUP10 ADD CALLDATALOAD PUSH1 0x1 PUSH1 0x1 PUSH1 0x40 SHL SUB DUP2 GT ISZERO PUSH2 0x1513 JUMPI PUSH0 PUSH0 REVERT JUMPDEST PUSH2 0x151F DUP12 DUP3 DUP13 ADD PUSH2 0x1399 JUMP JUMPDEST SWAP1 SWAP8 POP SWAP6 POP POP PUSH1 0x60 DUP10 ADD CALLDATALOAD PUSH1 0x1 PUSH1 0x1 PUSH1 0x40 SHL SUB DUP2 AND DUP2 EQ PUSH2 0x153E JUMPI PUSH0 PUSH0 REVERT JUMPDEST SWAP4 POP PUSH1 0x80 DUP10 ADD CALLDATALOAD PUSH1 0x1 PUSH1 0x1 PUSH1 0x40 SHL SUB DUP2 GT ISZERO PUSH2 0x1558 JUMPI PUSH0 PUSH0 REVERT JUMPDEST PUSH2 0x1564 DUP12 DUP3 DUP13 ADD PUSH2 0x147E JUMP JUMPDEST SWAP1 SWAP5 POP SWAP3 POP PUSH2 0x1577 SWAP1 POP PUSH1 0xA0 DUP11 ADD PUSH2 0x14BE JUMP JUMPDEST SWAP1 POP SWAP3 SWAP6 SWAP9 POP SWAP3 SWAP6 SWAP9 SWAP1 SWAP4 SWAP7 POP JUMP JUMPDEST PUSH1 0x1 DUP2 DUP2 SHR SWAP1 DUP3 AND DUP1 PUSH2 0x159A JUMPI PUSH1 0x7F DUP3 AND SWAP2 POP JUMPDEST PUSH1 0x20 DUP3 LT DUP2 SUB PUSH2 0x6F4 JUMPI PUSH4 0x4E487B71 PUSH1 0xE0 SHL PUSH0 MSTORE PUSH1 0x22 PUSH1 0x4 MSTORE PUSH1 0x24 PUSH0 REVERT JUMPDEST DUP2 DUP4 DUP3 CALLDATACOPY PUSH0 SWAP2 ADD SWAP1 DUP2 MSTORE SWAP2 SWAP1 POP JUMP JUMPDEST PUSH4 0x4E487B71 PUSH1 0xE0 SHL PUSH0 MSTORE PUSH1 0x41 PUSH1 0x4 MSTORE PUSH1 0x24 PUSH0 REVERT JUMPDEST PUSH1 0x1F DUP3 GT ISZERO PUSH2 0x1622 JUMPI DUP1 PUSH0 MSTORE PUSH1 0x20 PUSH0 KECCAK256 PUSH1 0x1F DUP5 ADD PUSH1 0x5 SHR DUP2 ADD PUSH1 0x20 DUP6 LT ISZERO PUSH2 0x1600 JUMPI POP DUP1 JUMPDEST PUSH1 0x1F DUP5 ADD PUSH1 0x5 SHR DUP3 ADD SWAP2 POP JUMPDEST DUP2 DUP2 LT ISZERO PUSH2 0x161F JUMPI PUSH0 DUP2 SSTORE PUSH1 0x1 ADD PUSH2 0x160C JUMP JUMPDEST POP POP JUMPDEST POP POP POP JUMP JUMPDEST PUSH1 0x1 PUSH1 0x1 PUSH1 0x40 SHL SUB DUP4 GT ISZERO PUSH2 0x163E JUMPI PUSH2 0x163E PUSH2 0x15C7 JUMP JUMPDEST PUSH2 0x1652 DUP4 PUSH2 0x164C DUP4 SLOAD PUSH2 0x1586 JUMP JUMPDEST DUP4 PUSH2 0x15DB JUMP JUMPDEST PUSH0 PUSH1 0x1F DUP5 GT PUSH1 0x1 DUP2 EQ PUSH2 0x1683 JUMPI PUSH0 DUP6 ISZERO PUSH2 0x166C JUMPI POP DUP4 DUP3 ADD CALLDATALOAD JUMPDEST PUSH0 NOT PUSH1 0x3 DUP8 SWAP1 SHL SHR NOT AND PUSH1 0x1 DUP7 SWAP1 SHL OR DUP4 SSTORE PUSH2 0x161F JUMP JUMPDEST PUSH0 DUP4 DUP2 MSTORE PUSH1 0x20 DUP2 KECCAK256 PUSH1 0x1F NOT DUP8 AND SWAP2 JUMPDEST DUP3 DUP2 LT ISZERO PUSH2 0x16B2 JUMPI DUP7 DUP6 ADD CALLDATALOAD DUP3 SSTORE PUSH1 0x20 SWAP5 DUP6 ADD SWAP5 PUSH1 0x1 SWAP1 SWAP3 ADD SWAP2 ADD PUSH2 0x1692 JUMP JUMPDEST POP DUP7 DUP3 LT ISZERO PUSH2 0x16CE JUMPI PUSH0 NOT PUSH1 0xF8 DUP9 PUSH1 0x3 SHL AND SHR NOT DUP5 DUP8 ADD CALLDATALOAD AND DUP2 SSTORE JUMPDEST POP POP PUSH1 0x1 DUP6 PUSH1 0x1 SHL ADD DUP4 SSTORE POP POP POP POP POP JUMP JUMPDEST PUSH1 0x20 DUP2 MSTORE DUP2 PUSH1 0x20 DUP3 ADD MSTORE DUP2 DUP4 PUSH1 0x40 DUP4 ADD CALLDATACOPY PUSH0 DUP2 DUP4 ADD PUSH1 0x40 SWAP1 DUP2 ADD SWAP2 SWAP1 SWAP2 MSTORE PUSH1 0x1F SWAP1 SWAP3 ADD PUSH1 0x1F NOT AND ADD ADD SWAP2 SWAP1 POP JUMP JUMPDEST PUSH4 0x4E487B71 PUSH1 0xE0 SHL PUSH0 MSTORE PUSH1 0x11 PUSH1 0x4 MSTORE PUSH1 0x24 PUSH0 REVERT JUMPDEST PUSH1 0x1 PUSH1 0x1 PUSH1 0x40 SHL SUB DUP2 DUP2 AND DUP4 DUP3 AND ADD SWAP1 DUP2 GT ISZERO PUSH2 0xE76 JUMPI PUSH2 0xE76 PUSH2 0x170E JUMP JUMPDEST PUSH0 PUSH1 0x1 DUP3 ADD PUSH2 0x1752 JUMPI PUSH2 0x1752 PUSH2 0x170E JUMP JUMPDEST POP PUSH1 0x1 ADD SWAP1 JUMP JUMPDEST PUSH1 0x40 MLOAD PUSH1 0x1F DUP3 ADD PUSH1 0x1F NOT AND DUP2 ADD PUSH1 0x1 PUSH1 0x1 PUSH1 0x40 SHL SUB DUP2 GT DUP3 DUP3 LT OR ISZERO PUSH2 0x1781 JUMPI PUSH2 0x1781 PUSH2 0x15C7 JUMP JUMPDEST PUSH1 0x40 MSTORE SWAP2 SWAP1 POP JUMP JUMPDEST PUSH0 PUSH1 0x1 PUSH1 0x1 PUSH1 0x40 SHL SUB DUP4 GT ISZERO PUSH2 0x17A1 JUMPI PUSH2 0x17A1 PUSH2 0x15C7 JUMP JUMPDEST DUP3 PUSH1 0x5 SHL PUSH2 0x17B1 PUSH1 0x20 DUP3 ADD PUSH2 0x1759 JUMP JUMPDEST DUP5 DUP2 MSTORE SWAP1 DUP4 ADD SWAP1 PUSH1 0x20 DUP2 ADD SWAP1 CALLDATASIZE DUP4 GT ISZERO PUSH2 0x17C9 JUMPI PUSH0 PUSH0 REVERT JUMPDEST DUP5 JUMPDEST DUP4 DUP2 LT ISZERO PUSH2 0x1861 JUMPI DUP1 CALLDATALOAD PUSH1 0x1 PUSH1 0x1 PUSH1 0x40 SHL SUB DUP2 GT ISZERO PUSH2 0x17E8 JUMPI PUSH0 PUSH0 REVERT JUMPDEST DUP7 ADD CALLDATASIZE PUSH1 0x1F DUP3 ADD SLT PUSH2 0x17F8 JUMPI PUSH0 PUSH0 REVERT JUMPDEST DUP1 CALLDATALOAD PUSH1 0x1 PUSH1 0x1 PUSH1 0x40 SHL SUB DUP2 GT ISZERO PUSH2 0x1811 JUMPI PUSH2 0x1811 PUSH2 0x15C7 JUMP JUMPDEST PUSH2 0x1824 PUSH1 0x1F DUP3 ADD PUSH1 0x1F NOT AND PUSH1 0x20 ADD PUSH2 0x1759 JUMP JUMPDEST DUP2 DUP2 MSTORE CALLDATASIZE PUSH1 0x20 DUP4 DUP6 ADD ADD GT ISZERO PUSH2 0x1838 JUMPI PUSH0 PUSH0 REVERT JUMPDEST DUP2 PUSH1 0x20 DUP5 ADD PUSH1 0x20 DUP4 ADD CALLDATACOPY PUSH0 PUSH1 0x20 DUP4 DUP4 ADD ADD MSTORE DUP1 DUP7 MSTORE POP POP POP PUSH1 0x20 DUP4 ADD SWAP3 POP PUSH1 0x20 DUP2 ADD SWAP1 POP PUSH2 0x17CB JUMP JUMPDEST POP SWAP6 SWAP5 POP POP POP POP POP JUMP JUMPDEST DUP2 MLOAD PUSH1 0x1 PUSH1 0x1 PUSH1 0x40 SHL SUB DUP2 GT ISZERO PUSH2 0x1884 JUMPI PUSH2 0x1884 PUSH2 0x15C7 JUMP JUMPDEST PUSH2 0x1898 DUP2 PUSH2 0x1892 DUP5 SLOAD PUSH2 0x1586 JUMP JUMPDEST DUP5 PUSH2 0x15DB JUMP JUMPDEST PUSH1 0x20 PUSH1 0x1F DUP3 GT PUSH1 0x1 DUP2 EQ PUSH2 0x18CA JUMPI PUSH0 DUP4 ISZERO PUSH2 0x18B3 JUMPI POP DUP5 DUP3 ADD MLOAD JUMPDEST PUSH0 NOT PUSH1 0x3 DUP6 SWAP1 SHL SHR NOT AND PUSH1 0x1 DUP5 SWAP1 SHL OR DUP5 SSTORE PUSH2 0x161F JUMP JUMPDEST PUSH0 DUP5 DUP2 MSTORE PUSH1 0x20 DUP2 KECCAK256 PUSH1 0x1F NOT DUP6 AND SWAP2 JUMPDEST DUP3 DUP2 LT ISZERO PUSH2 0x18F9 JUMPI DUP8 DUP6 ADD MLOAD DUP3 SSTORE PUSH1 0x20 SWAP5 DUP6 ADD SWAP5 PUSH1 0x1 SWAP1 SWAP3 ADD SWAP2 ADD PUSH2 0x18D9 JUMP JUMPDEST POP DUP5 DUP3 LT ISZERO PUSH2 0x1916 JUMPI DUP7 DUP5 ADD MLOAD PUSH0 NOT PUSH1 0x3 DUP8 SWAP1 SHL PUSH1 0xF8 AND SHR NOT AND DUP2 SSTORE JUMPDEST POP POP POP POP PUSH1 0x1 SWAP1 DUP2 SHL ADD SWAP1 SSTORE POP JUMP JUMPDEST DUP2 DUP2 SUB DUP2 DUP2 GT ISZERO PUSH2 0xE76 JUMPI PUSH2 0xE76 PUSH2 0x170E JUMP JUMPDEST PUSH1 0x1 PUSH1 0x1 PUSH1 0x40 SHL SUB DUP5 AND DUP2 MSTORE PUSH1 0x60 DUP2 ADD PUSH2 0x1951 DUP5 PUSH2 0x1214 JUMP JUMPDEST PUSH1 0x20 DUP3 ADD SWAP4 SWAP1 SWAP4 MSTORE PUSH1 0x40 ADD MSTORE SWAP2 SWAP1 POP JUMP JUMPDEST PUSH4 0x4E487B71 PUSH1 0xE0 SHL PUSH0 MSTORE PUSH1 0x32 PUSH1 0x4 MSTORE PUSH1 0x24 PUSH0 REVERT JUMPDEST DUP1 DUP3 ADD DUP1 DUP3 GT ISZERO PUSH2 0xE76 JUMPI PUSH2 0xE76 PUSH2 0x170E JUMP JUMPDEST DUP1 DUP3 MUL DUP2 ISZERO DUP3 DUP3 DIV DUP5 EQ OR PUSH2 0xE76 JUMPI PUSH2 0xE76 PUSH2 0x170E JUMP JUMPDEST PUSH0 DUP3 MLOAD DUP1 PUSH1 0x20 DUP6 ADD DUP5 MCOPY PUSH0 SWAP3 ADD SWAP2 DUP3 MSTORE POP SWAP2 SWAP1 POP JUMP INVALID LOG2 PUSH5 0x6970667358 0x22 SLT KECCAK256 0xFC 0xA6 0x4E EXTDELEGATECALL GAS 0xB6 RETF PUSH9 0x3938D8BD9A9E445A6B 0xE9 0xB6 0xD8 PUSH0 SWAP16 SGT LT 0xBB 0xA6 0xAE MULMOD 0xE 0xEB PUSH22 0xD864736F6C634300081E003300000000000000000000 "},"methodIdentifiers":{"MAX_CONTENT_SIZE()":"c2477610","MAX_LOCK_DURATION()":"4f1bfc9e","MIN_LOCK_DURATION()":"78b4330f","canAccessCapsule(uint256,address)":"7f944a89","createCapsule(uint8,bytes32,string,uint64,string[],bool)":"b29580c6","getCapsule(uint256)":"3aac3858","getUserCapsules(address)":"366636f7","protocolFee()":"b0e21e8a","revealCapsule(uint256,bytes,string)":"5eebcf0a","setProtocolFee(uint256)":"787dce3d","setTreasury(address)":"f0f44260","totalCapsules()":"b49ce17f","treasury()":"61d027b3","unlockCapsule(uint256)":"2178c0a2"}}}}}